{
  "_format": "hh-sol-artifact-1",
  "contractName": "Greeter",
  "sourceName": "contracts/Greeter.sol",
  "abi": [
    {
      "inputs": [
        {
          "internalType": "string",
          "name": "_greeting",
          "type": "string"
        }
      ],
      "stateMutability": "nonpayable",
      "type": "constructor"
    },
    {
      "inputs": [],
      "name": "greet",
      "outputs": [
        {
          "internalType": "string",
          "name": "",
          "type": "string"
        }
      ],
      "stateMutability": "view",
      "type": "function"
    },
    {
      "inputs": [],
      "name": "greeting",
      "outputs": [
        {
          "internalType": "string",
          "name": "",
          "type": "string"
        }
      ],
      "stateMutability": "view",
      "type": "function"
    },
    {
      "inputs": [
        {
          "internalType": "string",
          "name": "_greeting",
          "type": "string"
        }
      ],
      "name": "setGreeting",
      "outputs": [],
      "stateMutability": "nonpayable",
      "type": "function"
    }
  ],
  "bytecode": "0x60806040523480156200001157600080fd5b5060405162000a3e38038062000a3e833981810160405281019062000037919062000179565b80600090805190602001906200004f92919062000057565b50506200032e565b828054620000659062000253565b90600052602060002090601f016020900481019282620000895760008555620000d5565b82601f10620000a457805160ff1916838001178555620000d5565b82800160010185558215620000d5579182015b82811115620000d4578251825591602001919060010190620000b7565b5b509050620000e49190620000e8565b5090565b5b8082111562000103576000816000905550600101620000e9565b5090565b60006200011e6200011884620001e7565b620001be565b9050828152602081018484840111156200013757600080fd5b620001448482856200021d565b509392505050565b600082601f8301126200015e57600080fd5b81516200017084826020860162000107565b91505092915050565b6000602082840312156200018c57600080fd5b600082015167ffffffffffffffff811115620001a757600080fd5b620001b5848285016200014c565b91505092915050565b6000620001ca620001dd565b9050620001d8828262000289565b919050565b6000604051905090565b600067ffffffffffffffff821115620002055762000204620002ee565b5b62000210826200031d565b9050602081019050919050565b60005b838110156200023d57808201518184015260208101905062000220565b838111156200024d576000848401525b50505050565b600060028204905060018216806200026c57607f821691505b60208210811415620002835762000282620002bf565b5b50919050565b62000294826200031d565b810181811067ffffffffffffffff82111715620002b657620002b5620002ee565b5b80604052505050565b7f4e487b7100000000000000000000000000000000000000000000000000000000600052602260045260246000fd5b7f4e487b7100000000000000000000000000000000000000000000000000000000600052604160045260246000fd5b6000601f19601f8301169050919050565b610700806200033e6000396000f3fe608060405234801561001057600080fd5b50600436106100415760003560e01c8063a413686214610046578063cfae321714610062578063ef690cc014610080575b600080fd5b610060600480360381019061005b9190610471565b61009e565b005b61006a6100b8565b60405161007791906104eb565b60405180910390f35b610088610213565b60405161009591906104eb565b60405180910390f35b80600090805190602001906100b4929190610366565b5050565b60606101836040518060400160405280600981526020017f4772656574696e673a000000000000000000000000000000000000000000000081525060008054610100906105f8565b80601f016020809104026020016040519081016040528092919081815260200182805461012c906105f8565b80156101795780601f1061014e57610100808354040283529160200191610179565b820191906000526020600020905b81548152906001019060200180831161015c57829003601f168201915b50505050506102a1565b60008054610190906105f8565b80601f01602080910402602001604051908101604052809291908181526020018280546101bc906105f8565b80156102095780601f106101de57610100808354040283529160200191610209565b820191906000526020600020905b8154815290600101906020018083116101ec57829003601f168201915b5050505050905090565b60008054610220906105f8565b80601f016020809104026020016040519081016040528092919081815260200182805461024c906105f8565b80156102995780601f1061026e57610100808354040283529160200191610299565b820191906000526020600020905b81548152906001019060200180831161027c57829003601f168201915b505050505081565b61033982826040516024016102b792919061050d565b6040516020818303038152906040527f4b5c4277000000000000000000000000000000000000000000000000000000007bffffffffffffffffffffffffffffffffffffffffffffffffffffffff19166020820180517bffffffffffffffffffffffffffffffffffffffffffffffffffffffff838183161783525050505061033d565b5050565b60008151905060006a636f6e736f6c652e6c6f679050602083016000808483855afa5050505050565b828054610372906105f8565b90600052602060002090601f01602090048101928261039457600085556103db565b82601f106103ad57805160ff19168380011785556103db565b828001600101855582156103db579182015b828111156103da5782518255916020019190600101906103bf565b5b5090506103e891906103ec565b5090565b5b808211156104055760008160009055506001016103ed565b5090565b600061041c61041784610569565b610544565b90508281526020810184848401111561043457600080fd5b61043f8482856105b6565b509392505050565b600082601f83011261045857600080fd5b8135610468848260208601610409565b91505092915050565b60006020828403121561048357600080fd5b600082013567ffffffffffffffff81111561049d57600080fd5b6104a984828501610447565b91505092915050565b60006104bd8261059a565b6104c781856105a5565b93506104d78185602086016105c5565b6104e0816106b9565b840191505092915050565b6000602082019050818103600083015261050581846104b2565b905092915050565b6000604082019050818103600083015261052781856104b2565b9050818103602083015261053b81846104b2565b90509392505050565b600061054e61055f565b905061055a828261062a565b919050565b6000604051905090565b600067ffffffffffffffff8211156105845761058361068a565b5b61058d826106b9565b9050602081019050919050565b600081519050919050565b600082825260208201905092915050565b82818337600083830152505050565b60005b838110156105e35780820151818401526020810190506105c8565b838111156105f2576000848401525b50505050565b6000600282049050600182168061061057607f821691505b602082108114156106245761062361065b565b5b50919050565b610633826106b9565b810181811067ffffffffffffffff821117156106525761065161068a565b5b80604052505050565b7f4e487b7100000000000000000000000000000000000000000000000000000000600052602260045260246000fd5b7f4e487b7100000000000000000000000000000000000000000000000000000000600052604160045260246000fd5b6000601f19601f830116905091905056fea26469706673582212203ef06b4bbce8c0d8dd220794c5d3869ba58abceb8da0edd6c702deff6458d72e64736f6c63430008040033",
  "linkReferences": {},
  "deployedLinkReferences": {}
}