{
  "_format": "hh-sol-artifact-1",
  "contractName": "Greeter",
  "sourceName": "contracts/Greeter.sol",
  "abi": [
    {
      "inputs": [
        {
          "internalType": "string",
          "name": "_greeting",
          "type": "string"
        }
      ],
      "stateMutability": "nonpayable",
      "type": "constructor"
    },
    {
      "inputs": [],
      "name": "greet",
      "outputs": [
        {
          "internalType": "string",
          "name": "",
          "type": "string"
        }
      ],
      "stateMutability": "view",
      "type": "function"
    },
    {
      "inputs": [
        {
          "internalType": "string",
          "name": "_greeting",
          "type": "string"
        }
      ],
      "name": "setGreeting",
      "outputs": [],
      "stateMutability": "nonpayable",
      "type": "function"
    }
  ],
  "bytecode": "0x60806040523480156200001157600080fd5b506040516200098738038062000987833981810160405281019062000037919062000179565b80600090805190602001906200004f92919062000057565b50506200032e565b828054620000659062000253565b90600052602060002090601f016020900481019282620000895760008555620000d5565b82601f10620000a457805160ff1916838001178555620000d5565b82800160010185558215620000d5579182015b82811115620000d4578251825591602001919060010190620000b7565b5b509050620000e49190620000e8565b5090565b5b8082111562000103576000816000905550600101620000e9565b5090565b60006200011e6200011884620001e7565b620001be565b9050828152602081018484840111156200013757600080fd5b620001448482856200021d565b509392505050565b600082601f8301126200015e57600080fd5b81516200017084826020860162000107565b91505092915050565b6000602082840312156200018c57600080fd5b600082015167ffffffffffffffff811115620001a757600080fd5b620001b5848285016200014c565b91505092915050565b6000620001ca620001dd565b9050620001d8828262000289565b919050565b6000604051905090565b600067ffffffffffffffff821115620002055762000204620002ee565b5b62000210826200031d565b9050602081019050919050565b60005b838110156200023d57808201518184015260208101905062000220565b838111156200024d576000848401525b50505050565b600060028204905060018216806200026c57607f821691505b60208210811415620002835762000282620002bf565b5b50919050565b62000294826200031d565b810181811067ffffffffffffffff82111715620002b657620002b5620002ee565b5b80604052505050565b7f4e487b7100000000000000000000000000000000000000000000000000000000600052602260045260246000fd5b7f4e487b7100000000000000000000000000000000000000000000000000000000600052604160045260246000fd5b6000601f19601f8301169050919050565b610649806200033e6000396000f3fe608060405234801561001057600080fd5b50600436106100365760003560e01c8063a41368621461003b578063cfae321714610057575b600080fd5b610055600480360381019061005091906103ba565b610075565b005b61005f61008f565b60405161006c9190610434565b60405180910390f35b806000908051906020019061008b9291906102af565b5050565b606061015a6040518060400160405280600981526020017f4772656574696e673a0000000000000000000000000000000000000000000000815250600080546100d790610541565b80601f016020809104026020016040519081016040528092919081815260200182805461010390610541565b80156101505780601f1061012557610100808354040283529160200191610150565b820191906000526020600020905b81548152906001019060200180831161013357829003601f168201915b50505050506101ea565b6000805461016790610541565b80601f016020809104026020016040519081016040528092919081815260200182805461019390610541565b80156101e05780601f106101b5576101008083540402835291602001916101e0565b820191906000526020600020905b8154815290600101906020018083116101c357829003601f168201915b5050505050905090565b6102828282604051602401610200929190610456565b6040516020818303038152906040527f4b5c4277000000000000000000000000000000000000000000000000000000007bffffffffffffffffffffffffffffffffffffffffffffffffffffffff19166020820180517bffffffffffffffffffffffffffffffffffffffffffffffffffffffff8381831617835250505050610286565b5050565b60008151905060006a636f6e736f6c652e6c6f679050602083016000808483855afa5050505050565b8280546102bb90610541565b90600052602060002090601f0160209004810192826102dd5760008555610324565b82601f106102f657805160ff1916838001178555610324565b82800160010185558215610324579182015b82811115610323578251825591602001919060010190610308565b5b5090506103319190610335565b5090565b5b8082111561034e576000816000905550600101610336565b5090565b6000610365610360846104b2565b61048d565b90508281526020810184848401111561037d57600080fd5b6103888482856104ff565b509392505050565b600082601f8301126103a157600080fd5b81356103b1848260208601610352565b91505092915050565b6000602082840312156103cc57600080fd5b600082013567ffffffffffffffff8111156103e657600080fd5b6103f284828501610390565b91505092915050565b6000610406826104e3565b61041081856104ee565b935061042081856020860161050e565b61042981610602565b840191505092915050565b6000602082019050818103600083015261044e81846103fb565b905092915050565b6000604082019050818103600083015261047081856103fb565b9050818103602083015261048481846103fb565b90509392505050565b60006104976104a8565b90506104a38282610573565b919050565b6000604051905090565b600067ffffffffffffffff8211156104cd576104cc6105d3565b5b6104d682610602565b9050602081019050919050565b600081519050919050565b600082825260208201905092915050565b82818337600083830152505050565b60005b8381101561052c578082015181840152602081019050610511565b8381111561053b576000848401525b50505050565b6000600282049050600182168061055957607f821691505b6020821081141561056d5761056c6105a4565b5b50919050565b61057c82610602565b810181811067ffffffffffffffff8211171561059b5761059a6105d3565b5b80604052505050565b7f4e487b7100000000000000000000000000000000000000000000000000000000600052602260045260246000fd5b7f4e487b7100000000000000000000000000000000000000000000000000000000600052604160045260246000fd5b6000601f19601f830116905091905056fea2646970667358221220f5e0a6e7a15e9f0def95a9805b5dc0cbbae2003dea4cdc29e9f1bc7ece87dc7a64736f6c63430008040033",
  "linkReferences": {},
  "deployedLinkReferences": {}
}