{
    "_format": "hh-sol-artifact-1",
    "contractName": "Toaster",
    "sourceName": "contracts/Toaster.sol",
    "abi": [
        {
            "inputs": [],
            "stateMutability": "nonpayable",
            "type": "constructor"
        },
        {
            "anonymous": false,
            "inputs": [
                {
                    "indexed": true,
                    "internalType": "address",
                    "name": "previousOwner",
                    "type": "address"
                },
                {
                    "indexed": true,
                    "internalType": "address",
                    "name": "newOwner",
                    "type": "address"
                }
            ],
            "name": "OwnershipTransferred",
            "type": "event"
        },
        {
            "inputs": [],
            "name": "owner",
            "outputs": [
                {
                    "internalType": "address",
                    "name": "",
                    "type": "address"
                }
            ],
            "stateMutability": "view",
            "type": "function"
        },
        {
            "inputs": [],
            "name": "renounceOwnership",
            "outputs": [],
            "stateMutability": "nonpayable",
            "type": "function"
        },
        {
            "inputs": [],
            "name": "returnToast",
            "outputs": [
                {
                    "internalType": "string",
                    "name": "",
                    "type": "string"
                }
            ],
            "stateMutability": "view",
            "type": "function"
        },
        {
            "inputs": [
                {
                    "internalType": "string",
                    "name": "_toast",
                    "type": "string"
                }
            ],
            "name": "setToast",
            "outputs": [],
            "stateMutability": "nonpayable",
            "type": "function"
        },
        {
            "inputs": [],
            "name": "toast",
            "outputs": [
                {
                    "internalType": "string",
                    "name": "",
                    "type": "string"
                }
            ],
            "stateMutability": "view",
            "type": "function"
        },
        {
            "inputs": [
                {
                    "internalType": "address",
                    "name": "newOwner",
                    "type": "address"
                }
            ],
            "name": "transferOwnership",
            "outputs": [],
            "stateMutability": "nonpayable",
            "type": "function"
        }
    ],
    "bytecode": "0x608060405234801561001057600080fd5b5061002d61002261003260201b60201c565b61003a60201b60201c565b6100fe565b600033905090565b60008060009054906101000a900473ffffffffffffffffffffffffffffffffffffffff169050816000806101000a81548173ffffffffffffffffffffffffffffffffffffffff021916908373ffffffffffffffffffffffffffffffffffffffff1602179055508173ffffffffffffffffffffffffffffffffffffffff168173ffffffffffffffffffffffffffffffffffffffff167f8be0079c531659141344cd1fd0a4f28419497f9722a3daafe3b4186f6b6457e060405160405180910390a35050565b610b7b8061010d6000396000f3fe608060405234801561001057600080fd5b50600436106100625760003560e01c80634cc23b2814610067578063715018a6146100855780638da5cb5b1461008f578063bff9d78c146100ad578063c4f8d135146100cb578063f2fde38b146100e7575b600080fd5b61006f610103565b60405161007c9190610865565b60405180910390f35b61008d610195565b005b61009761021d565b6040516100a4919061084a565b60405180910390f35b6100b5610246565b6040516100c29190610865565b60405180910390f35b6100e560048036038101906100e0919061077b565b6102d4565b005b61010160048036038101906100fc9190610752565b6103a9565b005b606060018054610112906109e4565b80601f016020809104026020016040519081016040528092919081815260200182805461013e906109e4565b801561018b5780601f106101605761010080835404028352916020019161018b565b820191906000526020600020905b81548152906001019060200180831161016e57829003601f168201915b5050505050905090565b61019d6104a1565b73ffffffffffffffffffffffffffffffffffffffff166101bb61021d565b73ffffffffffffffffffffffffffffffffffffffff1614610211576040517f08c379a0000000000000000000000000000000000000000000000000000000008152600401610208906108de565b60405180910390fd5b61021b60006104a9565b565b60008060009054906101000a900473ffffffffffffffffffffffffffffffffffffffff16905090565b60018054610253906109e4565b80601f016020809104026020016040519081016040528092919081815260200182805461027f906109e4565b80156102cc5780601f106102a1576101008083540402835291602001916102cc565b820191906000526020600020905b8154815290600101906020018083116102af57829003601f168201915b505050505081565b6102dc6104a1565b73ffffffffffffffffffffffffffffffffffffffff166102fa61021d565b73ffffffffffffffffffffffffffffffffffffffff1614610350576040517f08c379a0000000000000000000000000000000000000000000000000000000008152600401610347906108de565b60405180910390fd5b61038f6040518060400160405280601281526020017f53657474696e6720746f61737420746f3a2000000000000000000000000000008152508261056d565b80600190805190602001906103a5929190610632565b5050565b6103b16104a1565b73ffffffffffffffffffffffffffffffffffffffff166103cf61021d565b73ffffffffffffffffffffffffffffffffffffffff1614610425576040517f08c379a000000000000000000000000000000000000000000000000000000000815260040161041c906108de565b60405180910390fd5b600073ffffffffffffffffffffffffffffffffffffffff168173ffffffffffffffffffffffffffffffffffffffff161415610495576040517f08c379a000000000000000000000000000000000000000000000000000000000815260040161048c906108be565b60405180910390fd5b61049e816104a9565b50565b600033905090565b60008060009054906101000a900473ffffffffffffffffffffffffffffffffffffffff169050816000806101000a81548173ffffffffffffffffffffffffffffffffffffffff021916908373ffffffffffffffffffffffffffffffffffffffff1602179055508173ffffffffffffffffffffffffffffffffffffffff168173ffffffffffffffffffffffffffffffffffffffff167f8be0079c531659141344cd1fd0a4f28419497f9722a3daafe3b4186f6b6457e060405160405180910390a35050565b6106058282604051602401610583929190610887565b6040516020818303038152906040527f4b5c4277000000000000000000000000000000000000000000000000000000007bffffffffffffffffffffffffffffffffffffffffffffffffffffffff19166020820180517bffffffffffffffffffffffffffffffffffffffffffffffffffffffff8381831617835250505050610609565b5050565b60008151905060006a636f6e736f6c652e6c6f679050602083016000808483855afa5050505050565b82805461063e906109e4565b90600052602060002090601f01602090048101928261066057600085556106a7565b82601f1061067957805160ff19168380011785556106a7565b828001600101855582156106a7579182015b828111156106a657825182559160200191906001019061068b565b5b5090506106b491906106b8565b5090565b5b808211156106d15760008160009055506001016106b9565b5090565b60006106e86106e384610923565b6108fe565b90508281526020810184848401111561070057600080fd5b61070b8482856109a2565b509392505050565b60008135905061072281610b2e565b92915050565b600082601f83011261073957600080fd5b81356107498482602086016106d5565b91505092915050565b60006020828403121561076457600080fd5b600061077284828501610713565b91505092915050565b60006020828403121561078d57600080fd5b600082013567ffffffffffffffff8111156107a757600080fd5b6107b384828501610728565b91505092915050565b6107c581610970565b82525050565b60006107d682610954565b6107e0818561095f565b93506107f08185602086016109b1565b6107f981610aa5565b840191505092915050565b600061081160268361095f565b915061081c82610ab6565b604082019050919050565b600061083460208361095f565b915061083f82610b05565b602082019050919050565b600060208201905061085f60008301846107bc565b92915050565b6000602082019050818103600083015261087f81846107cb565b905092915050565b600060408201905081810360008301526108a181856107cb565b905081810360208301526108b581846107cb565b90509392505050565b600060208201905081810360008301526108d781610804565b9050919050565b600060208201905081810360008301526108f781610827565b9050919050565b6000610908610919565b90506109148282610a16565b919050565b6000604051905090565b600067ffffffffffffffff82111561093e5761093d610a76565b5b61094782610aa5565b9050602081019050919050565b600081519050919050565b600082825260208201905092915050565b600061097b82610982565b9050919050565b600073ffffffffffffffffffffffffffffffffffffffff82169050919050565b82818337600083830152505050565b60005b838110156109cf5780820151818401526020810190506109b4565b838111156109de576000848401525b50505050565b600060028204905060018216806109fc57607f821691505b60208210811415610a1057610a0f610a47565b5b50919050565b610a1f82610aa5565b810181811067ffffffffffffffff82111715610a3e57610a3d610a76565b5b80604052505050565b7f4e487b7100000000000000000000000000000000000000000000000000000000600052602260045260246000fd5b7f4e487b7100000000000000000000000000000000000000000000000000000000600052604160045260246000fd5b6000601f19601f8301169050919050565b7f4f776e61626c653a206e6577206f776e657220697320746865207a65726f206160008201527f6464726573730000000000000000000000000000000000000000000000000000602082015250565b7f4f776e61626c653a2063616c6c6572206973206e6f7420746865206f776e6572600082015250565b610b3781610970565b8114610b4257600080fd5b5056fea2646970667358221220474126a5b4314df3d577d57d2759f1bed43a1eab646b2c9589d465e6babf795064736f6c63430008040033",
    "linkReferences": {},
    "deployedLinkReferences": {}
}